{
  "contractName": "Kernel",
  "abi": [
    {
      "constant": true,
      "inputs": [],
      "name": "newVersionCost",
      "outputs": [
        {
          "name": "",
          "type": "uint256"
        }
      ],
      "payable": false,
      "stateMutability": "view",
      "type": "function"
    },
    {
      "constant": true,
      "inputs": [],
      "name": "developerFraction",
      "outputs": [
        {
          "name": "",
          "type": "uint256"
        }
      ],
      "payable": false,
      "stateMutability": "view",
      "type": "function"
    },
    {
      "constant": true,
      "inputs": [],
      "name": "isInitialized",
      "outputs": [
        {
          "name": "",
          "type": "bool"
        }
      ],
      "payable": false,
      "stateMutability": "view",
      "type": "function"
    },
    {
      "constant": true,
      "inputs": [],
      "name": "vouches",
      "outputs": [
        {
          "name": "",
          "type": "address"
        }
      ],
      "payable": false,
      "stateMutability": "view",
      "type": "function"
    },
    {
      "constant": true,
      "inputs": [],
      "name": "token",
      "outputs": [
        {
          "name": "",
          "type": "address"
        }
      ],
      "payable": false,
      "stateMutability": "view",
      "type": "function"
    },
    {
      "anonymous": false,
      "inputs": [
        {
          "indexed": false,
          "name": "release",
          "type": "address"
        }
      ],
      "name": "ReleaseRegistered",
      "type": "event"
    },
    {
      "constant": false,
      "inputs": [
        {
          "name": "_newVersionCost",
          "type": "uint256"
        },
        {
          "name": "_developerFraction",
          "type": "uint256"
        },
        {
          "name": "_token",
          "type": "address"
        },
        {
          "name": "_vouches",
          "type": "address"
        }
      ],
      "name": "initialize",
      "outputs": [],
      "payable": false,
      "stateMutability": "nonpayable",
      "type": "function"
    },
    {
      "constant": false,
      "inputs": [
        {
          "name": "release",
          "type": "address"
        }
      ],
      "name": "register",
      "outputs": [],
      "payable": false,
      "stateMutability": "nonpayable",
      "type": "function"
    },
    {
      "constant": true,
      "inputs": [
        {
          "name": "release",
          "type": "address"
        }
      ],
      "name": "isRegistered",
      "outputs": [
        {
          "name": "",
          "type": "bool"
        }
      ],
      "payable": false,
      "stateMutability": "view",
      "type": "function"
    },
    {
      "constant": false,
      "inputs": [
        {
          "name": "release",
          "type": "address"
        },
        {
          "name": "amount",
          "type": "uint256"
        },
        {
          "name": "data",
          "type": "bytes"
        }
      ],
      "name": "vouch",
      "outputs": [],
      "payable": false,
      "stateMutability": "nonpayable",
      "type": "function"
    },
    {
      "constant": false,
      "inputs": [
        {
          "name": "release",
          "type": "address"
        },
        {
          "name": "amount",
          "type": "uint256"
        },
        {
          "name": "data",
          "type": "bytes"
        }
      ],
      "name": "unvouch",
      "outputs": [],
      "payable": false,
      "stateMutability": "nonpayable",
      "type": "function"
    },
    {
      "constant": false,
      "inputs": [
        {
          "name": "from",
          "type": "address"
        },
        {
          "name": "to",
          "type": "address"
        },
        {
          "name": "amount",
          "type": "uint256"
        },
        {
          "name": "data",
          "type": "bytes"
        }
      ],
      "name": "transferStake",
      "outputs": [],
      "payable": false,
      "stateMutability": "nonpayable",
      "type": "function"
    }
  ],
  "bytecode": "0x6060604052341561000f57600080fd5b6111f48061001e6000396000f3006060604052600436106100af576000357c0100000000000000000000000000000000000000000000000000000000900463ffffffff168063019e2729146100b4578063094eaa811461011e57806310c11c2b14610147578063392e53cd146101705780634420e4861461019d5780634eaf221b146101d6578063645cdb1b1461025b57806386897d6a146102e0578063c3c5a54714610335578063f98ed53d14610386578063fc0c546a1461042a575b600080fd5b34156100bf57600080fd5b61011c600480803590602001909190803590602001909190803573ffffffffffffffffffffffffffffffffffffffff1690602001909190803573ffffffffffffffffffffffffffffffffffffffff1690602001909190505061047f565b005b341561012957600080fd5b61013161054a565b6040518082815260200191505060405180910390f35b341561015257600080fd5b61015a610550565b6040518082815260200191505060405180910390f35b341561017b57600080fd5b610183610556565b604051808215151515815260200191505060405180910390f35b34156101a857600080fd5b6101d4600480803573ffffffffffffffffffffffffffffffffffffffff1690602001909190505061056c565b005b34156101e157600080fd5b610259600480803573ffffffffffffffffffffffffffffffffffffffff1690602001909190803590602001909190803590602001908201803590602001908080601f01602080910402602001604051908101604052809392919081815260200183838082843782019150505050505091905050610882565b005b341561026657600080fd5b6102de600480803573ffffffffffffffffffffffffffffffffffffffff1690602001909190803590602001909190803590602001908201803590602001908080601f016020809104026020016040519081016040528093929190818152602001838380828437820191505050505050919050506109c3565b005b34156102eb57600080fd5b6102f3610c2f565b604051808273ffffffffffffffffffffffffffffffffffffffff1673ffffffffffffffffffffffffffffffffffffffff16815260200191505060405180910390f35b341561034057600080fd5b61036c600480803573ffffffffffffffffffffffffffffffffffffffff16906020019091905050610c55565b604051808215151515815260200191505060405180910390f35b341561039157600080fd5b610428600480803573ffffffffffffffffffffffffffffffffffffffff1690602001909190803573ffffffffffffffffffffffffffffffffffffffff1690602001909190803590602001909190803590602001908201803590602001908080601f01602080910402602001604051908101604052809392919081815260200183838082843782019150505050505091905050610cab565b005b341561043557600080fd5b61043d610e5e565b604051808273ffffffffffffffffffffffffffffffffffffffff1673ffffffffffffffffffffffffffffffffffffffff16815260200191505060405180910390f35b6000809054906101000a900460ff1615151561049a57600080fd5b80600160006101000a81548173ffffffffffffffffffffffffffffffffffffffff021916908373ffffffffffffffffffffffffffffffffffffffff16021790555081600060016101000a81548173ffffffffffffffffffffffffffffffffffffffff021916908373ffffffffffffffffffffffffffffffffffffffff160217905550826003819055508360028190555060016000806101000a81548160ff02191690831515021790555050505050565b60025481565b60035481565b60008060009054906101000a900460ff16905090565b61057581610c55565b15151561058157600080fd5b8073ffffffffffffffffffffffffffffffffffffffff1663054f7d9c6040518163ffffffff167c0100000000000000000000000000000000000000000000000000000000028152600401602060405180830381600087803b15156105e457600080fd5b5af115156105f157600080fd5b50505060405180519050151561060657600080fd5b6001600460008373ffffffffffffffffffffffffffffffffffffffff1673ffffffffffffffffffffffffffffffffffffffff16815260200190815260200160002060006101000a81548160ff0219169083151502179055507f3e8c92a2bc2776a3bb126f00f2338739e4daf5a8659d9f560c9cd2ad22e95d0881604051808273ffffffffffffffffffffffffffffffffffffffff1673ffffffffffffffffffffffffffffffffffffffff16815260200191505060405180910390a1600060019054906101000a900473ffffffffffffffffffffffffffffffffffffffff1673ffffffffffffffffffffffffffffffffffffffff166323b872dd33306002546040518463ffffffff167c0100000000000000000000000000000000000000000000000000000000028152600401808473ffffffffffffffffffffffffffffffffffffffff1673ffffffffffffffffffffffffffffffffffffffff1681526020018373ffffffffffffffffffffffffffffffffffffffff1673ffffffffffffffffffffffffffffffffffffffff1681526020018281526020019350505050602060405180830381600087803b15156107bb57600080fd5b5af115156107c857600080fd5b5050506040518051905015156107dd57600080fd5b600060019054906101000a900473ffffffffffffffffffffffffffffffffffffffff1673ffffffffffffffffffffffffffffffffffffffff166342966c686002546040518263ffffffff167c010000000000000000000000000000000000000000000000000000000002815260040180828152602001915050600060405180830381600087803b151561086f57600080fd5b5af1151561087c57600080fd5b50505050565b8261088c81610c55565b151561089757600080fd5b600060019054906101000a900473ffffffffffffffffffffffffffffffffffffffff1673ffffffffffffffffffffffffffffffffffffffff166323b872dd3330866040518463ffffffff167c0100000000000000000000000000000000000000000000000000000000028152600401808473ffffffffffffffffffffffffffffffffffffffff1673ffffffffffffffffffffffffffffffffffffffff1681526020018373ffffffffffffffffffffffffffffffffffffffff1673ffffffffffffffffffffffffffffffffffffffff1681526020018281526020019350505050602060405180830381600087803b151561098f57600080fd5b5af1151561099c57600080fd5b5050506040518051905015156109b157600080fd5b6109bd33858585610e84565b50505050565b826109cd81610c55565b15156109d857600080fd5b600160009054906101000a900473ffffffffffffffffffffffffffffffffffffffff1673ffffffffffffffffffffffffffffffffffffffff16639ef8d607338686866040518563ffffffff167c0100000000000000000000000000000000000000000000000000000000028152600401808573ffffffffffffffffffffffffffffffffffffffff1673ffffffffffffffffffffffffffffffffffffffff1681526020018473ffffffffffffffffffffffffffffffffffffffff1673ffffffffffffffffffffffffffffffffffffffff16815260200183815260200180602001828103825283818151815260200191508051906020019080838360005b83811015610aef578082015181840152602081019050610ad4565b50505050905090810190601f168015610b1c5780820380516001836020036101000a031916815260200191505b5095505050505050600060405180830381600087803b1515610b3d57600080fd5b5af11515610b4a57600080fd5b505050600060019054906101000a900473ffffffffffffffffffffffffffffffffffffffff1673ffffffffffffffffffffffffffffffffffffffff1663a9059cbb33856040518363ffffffff167c0100000000000000000000000000000000000000000000000000000000028152600401808373ffffffffffffffffffffffffffffffffffffffff1673ffffffffffffffffffffffffffffffffffffffff16815260200182815260200192505050602060405180830381600087803b1515610c1157600080fd5b5af11515610c1e57600080fd5b505050604051805190505050505050565b600160009054906101000a900473ffffffffffffffffffffffffffffffffffffffff1681565b6000600460008373ffffffffffffffffffffffffffffffffffffffff1673ffffffffffffffffffffffffffffffffffffffff16815260200190815260200160002060009054906101000a900460ff169050919050565b83610cb581610c55565b1515610cc057600080fd5b83610cca81610c55565b1515610cd557600080fd5b600160009054906101000a900473ffffffffffffffffffffffffffffffffffffffff1673ffffffffffffffffffffffffffffffffffffffff16639ef8d607338887876040518563ffffffff167c0100000000000000000000000000000000000000000000000000000000028152600401808573ffffffffffffffffffffffffffffffffffffffff1673ffffffffffffffffffffffffffffffffffffffff1681526020018473ffffffffffffffffffffffffffffffffffffffff1673ffffffffffffffffffffffffffffffffffffffff16815260200183815260200180602001828103825283818151815260200191508051906020019080838360005b83811015610dec578082015181840152602081019050610dd1565b50505050905090810190601f168015610e195780820380516001836020036101000a031916815260200191505b5095505050505050600060405180830381600087803b1515610e3a57600080fd5b5af11515610e4757600080fd5b505050610e5633868686610e84565b505050505050565b600060019054906101000a900473ffffffffffffffffffffffffffffffffffffffff1681565b600080610e9c6003548561119490919063ffffffff16565b9150600082111515610ead57600080fd5b610ec082856111af90919063ffffffff16565b9050600160009054906101000a900473ffffffffffffffffffffffffffffffffffffffff1673ffffffffffffffffffffffffffffffffffffffff1663c2dd0a24878784876040518563ffffffff167c0100000000000000000000000000000000000000000000000000000000028152600401808573ffffffffffffffffffffffffffffffffffffffff1673ffffffffffffffffffffffffffffffffffffffff1681526020018473ffffffffffffffffffffffffffffffffffffffff1673ffffffffffffffffffffffffffffffffffffffff16815260200183815260200180602001828103825283818151815260200191508051906020019080838360005b83811015610fd9578082015181840152602081019050610fbe565b50505050905090810190601f1680156110065780820380516001836020036101000a031916815260200191505b5095505050505050600060405180830381600087803b151561102757600080fd5b5af1151561103457600080fd5b505050600060019054906101000a900473ffffffffffffffffffffffffffffffffffffffff1673ffffffffffffffffffffffffffffffffffffffff1663a9059cbb8673ffffffffffffffffffffffffffffffffffffffff1663ca4b208b6040518163ffffffff167c0100000000000000000000000000000000000000000000000000000000028152600401602060405180830381600087803b15156110d857600080fd5b5af115156110e557600080fd5b50505060405180519050846040518363ffffffff167c0100000000000000000000000000000000000000000000000000000000028152600401808373ffffffffffffffffffffffffffffffffffffffff1673ffffffffffffffffffffffffffffffffffffffff16815260200182815260200192505050602060405180830381600087803b151561117457600080fd5b5af1151561118157600080fd5b5050506040518051905050505050505050565b60008082848115156111a257fe5b0490508091505092915050565b60008282111515156111bd57fe5b8183039050929150505600a165627a7a72305820a583ddd5c472586694863e3c4365e02335b83bd539f28f8a036f15d6669b09a00029",
  "source": "pragma solidity ^0.4.21;\n\nimport \"./ZepToken.sol\";\nimport \"./Release.sol\";\nimport \"./Vouching.sol\";\nimport \"zeppelin-solidity/contracts/math/SafeMath.sol\";\nimport \"zos-lib/contracts/migrations/Initializable.sol\";\nimport \"zos-lib/contracts/upgradeability/UpgradeabilityProxyFactory.sol\";\n\n/**\n * @title Kernel\n * @dev This contract controls the standard library releases for ZeppelinOS\n */\ncontract Kernel is Initializable {\n  using SafeMath for uint256;\n\n  // Token used for vouching\n  ZepToken public token;\n\n  // Staking contract\n  Vouching public vouches;\n\n  // Price of registering a new kernel version\n  uint256 public newVersionCost;\n\n  // Fraction of vouches rewarded to the developer of a kernel release\n  uint256 public developerFraction;\n\n  // Keep track of registered kernel releases given their address\n  mapping(address => bool) internal releases;\n\n  /**\n   * @dev Event signaling that a new release has been registered\n   * @param release representing the new Release\n   */\n  event ReleaseRegistered(Release release);\n\n  /**\n  * @dev Guarantees that a given release is registered\n  */\n  modifier whenRegistered(Release release) {\n    require(isRegistered(release));\n    _;\n  }\n\n  /**\n   * @dev Initialization function\n   * @param _newVersionCost representing the price of registering a new release\n   * @param _developerFraction representing the fraction of vouches rewarded to the developer of the release\n   * @param _token representing the address of the vouching token\n   * @param _vouches representing the address of vouching contract\n   */\n  function initialize(\n    uint256 _newVersionCost,\n    uint256 _developerFraction,\n    ZepToken _token,\n    Vouching _vouches\n  ) public isInitializer {\n    vouches = _vouches;\n    token = _token;\n    developerFraction = _developerFraction;\n    newVersionCost = _newVersionCost;\n    // TODO: we need to think how we are going to manage variable costs to propose new versions\n  }\n\n  /**\n   * @dev Registers a new release and burns the sender's required amount of tokens for it\n   * @param release representing the stdlib release to be registered\n   */\n  function register(Release release) public {\n    require(!isRegistered(release));\n    require(release.frozen());\n    releases[release] = true;\n    emit ReleaseRegistered(release);\n    \n    // TODO: Update to burnFrom once https://github.com/OpenZeppelin/zeppelin-solidity/pull/870 is merged\n    require(token.transferFrom(msg.sender, this, newVersionCost));\n    token.burn(newVersionCost);\n  }\n\n  /**\n  * @dev Tells whether a given release is registered or not\n  * @param release representing the stdlib release to be checked for\n  */\n  function isRegistered(Release release) public view returns (bool) {\n    return releases[release];\n  }\n\n  /**\n   * @dev Vouches a given amount for a requested release\n   * @param release representing the stdlib release being vouched for\n   * @param amount representing the amount being vouched\n   * @param data representing additional information for complex vouching models\n   */\n  function vouch(Release release, uint256 amount, bytes data) public whenRegistered(release) {\n    require(token.transferFrom(msg.sender, this, amount));\n    _payoutAndVouch(msg.sender, release, amount, data);\n  }\n\n  /**\n   * @dev Unvouches a given amount for a requested release\n   * @param release representing the stdlib release being unvouched for\n   * @param amount representing the amount being unvouched\n   * @param data representing additional information for complex vouching models\n   */\n  function unvouch(Release release, uint256 amount, bytes data) public whenRegistered(release) {\n    vouches.unvouch(msg.sender, release, amount, data);\n    token.transfer(msg.sender, amount);\n  }\n\n  /**\n   * @dev Transfers vouches from a release to another\n   * @param from representing the stdlib release being unvouched for\n   * @param to representing the stdlib release being vouched for\n   * @param amount representing the amount of vouches being transferred\n   * @param data representing additional information for complex vouching models\n   */\n  function transferStake(Release from, Release to, uint256 amount, bytes data) public whenRegistered(from) whenRegistered(to) {\n    vouches.unvouch(msg.sender, from, amount, data);\n    _payoutAndVouch(msg.sender, to, amount, data);\n  }\n\n  /**\n   * @dev Stakes tokens for a given release and pays the corresponding fraction to its developer\n   * @param voucher representing the address of the voucher\n   * @param release representing the stdlib release being vouched for\n   * @param amount representing the amount being vouched\n   * @param data representing additional information for complex vouching models\n   */\n  function _payoutAndVouch(address voucher, Release release, uint256 amount, bytes data) internal {\n    uint256 developerPayout = amount.div(developerFraction);\n    require(developerPayout > 0);\n    // TODO: Think how we can manage remainders in a better way\n\n    uint256 vouchedAmount = amount.sub(developerPayout);\n    vouches.vouch(voucher, release, vouchedAmount, data);\n    token.transfer(release.developer(), developerPayout);\n  }\n}\n",
  "sourcePath": "/Users/facu/Documents/Laburo/Zeppelin/ZeppelinOS/kernel/contracts/Kernel.sol",
  "compiler": {
    "name": "solc",
    "version": "0.4.21+commit.dfe3193c.Emscripten.clang"
  },
  "schemaVersion": "2.0.0",
  "updatedAt": "2018-04-20T19:08:19.330Z"
}