{
  "contractName": "Vouching",
  "abi": [
    {
      "constant": true,
      "inputs": [],
      "name": "isInitialized",
      "outputs": [
        {
          "name": "",
          "type": "bool"
        }
      ],
      "payable": false,
      "stateMutability": "view",
      "type": "function"
    },
    {
      "constant": true,
      "inputs": [],
      "name": "owner",
      "outputs": [
        {
          "name": "",
          "type": "address"
        }
      ],
      "payable": false,
      "stateMutability": "view",
      "type": "function"
    },
    {
      "constant": false,
      "inputs": [
        {
          "name": "newOwner",
          "type": "address"
        }
      ],
      "name": "transferOwnership",
      "outputs": [],
      "payable": false,
      "stateMutability": "nonpayable",
      "type": "function"
    },
    {
      "anonymous": false,
      "inputs": [
        {
          "indexed": true,
          "name": "voucher",
          "type": "address"
        },
        {
          "indexed": false,
          "name": "release",
          "type": "address"
        },
        {
          "indexed": false,
          "name": "amount",
          "type": "uint256"
        },
        {
          "indexed": false,
          "name": "total",
          "type": "uint256"
        },
        {
          "indexed": false,
          "name": "data",
          "type": "bytes"
        }
      ],
      "name": "Vouched",
      "type": "event"
    },
    {
      "anonymous": false,
      "inputs": [
        {
          "indexed": true,
          "name": "voucher",
          "type": "address"
        },
        {
          "indexed": false,
          "name": "release",
          "type": "address"
        },
        {
          "indexed": false,
          "name": "amount",
          "type": "uint256"
        },
        {
          "indexed": false,
          "name": "total",
          "type": "uint256"
        },
        {
          "indexed": false,
          "name": "data",
          "type": "bytes"
        }
      ],
      "name": "Unvouched",
      "type": "event"
    },
    {
      "anonymous": false,
      "inputs": [
        {
          "indexed": true,
          "name": "previousOwner",
          "type": "address"
        },
        {
          "indexed": true,
          "name": "newOwner",
          "type": "address"
        }
      ],
      "name": "OwnershipTransferred",
      "type": "event"
    },
    {
      "constant": false,
      "inputs": [
        {
          "name": "_owner",
          "type": "address"
        }
      ],
      "name": "initialize",
      "outputs": [],
      "payable": false,
      "stateMutability": "nonpayable",
      "type": "function"
    },
    {
      "constant": true,
      "inputs": [],
      "name": "totalVouched",
      "outputs": [
        {
          "name": "",
          "type": "uint256"
        }
      ],
      "payable": false,
      "stateMutability": "view",
      "type": "function"
    },
    {
      "constant": true,
      "inputs": [
        {
          "name": "release",
          "type": "address"
        }
      ],
      "name": "totalVouchedFor",
      "outputs": [
        {
          "name": "",
          "type": "uint256"
        }
      ],
      "payable": false,
      "stateMutability": "view",
      "type": "function"
    },
    {
      "constant": true,
      "inputs": [
        {
          "name": "voucher",
          "type": "address"
        },
        {
          "name": "release",
          "type": "address"
        }
      ],
      "name": "vouchedFor",
      "outputs": [
        {
          "name": "",
          "type": "uint256"
        }
      ],
      "payable": false,
      "stateMutability": "view",
      "type": "function"
    },
    {
      "constant": false,
      "inputs": [
        {
          "name": "voucher",
          "type": "address"
        },
        {
          "name": "release",
          "type": "address"
        },
        {
          "name": "amount",
          "type": "uint256"
        },
        {
          "name": "data",
          "type": "bytes"
        }
      ],
      "name": "vouch",
      "outputs": [],
      "payable": false,
      "stateMutability": "nonpayable",
      "type": "function"
    },
    {
      "constant": false,
      "inputs": [
        {
          "name": "voucher",
          "type": "address"
        },
        {
          "name": "release",
          "type": "address"
        },
        {
          "name": "amount",
          "type": "uint256"
        },
        {
          "name": "data",
          "type": "bytes"
        }
      ],
      "name": "unvouch",
      "outputs": [],
      "payable": false,
      "stateMutability": "nonpayable",
      "type": "function"
    }
  ],
  "bytecode": "0x606060405233600060016101000a81548173ffffffffffffffffffffffffffffffffffffffff021916908373ffffffffffffffffffffffffffffffffffffffff160217905550610dcd806100546000396000f300606060405260043610610099576000357c0100000000000000000000000000000000000000000000000000000000900463ffffffff1680632efc002b1461009e578063392e53cd146100eb5780634ccd196a146101185780638da5cb5b146101415780639ef8d60714610196578063baee1ec51461023a578063c2dd0a24146102a6578063c4d66de81461034a578063f2fde38b14610383575b600080fd5b34156100a957600080fd5b6100d5600480803573ffffffffffffffffffffffffffffffffffffffff169060200190919050506103bc565b6040518082815260200191505060405180910390f35b34156100f657600080fd5b6100fe610405565b604051808215151515815260200191505060405180910390f35b341561012357600080fd5b61012b61041b565b6040518082815260200191505060405180910390f35b341561014c57600080fd5b610154610425565b604051808273ffffffffffffffffffffffffffffffffffffffff1673ffffffffffffffffffffffffffffffffffffffff16815260200191505060405180910390f35b34156101a157600080fd5b610238600480803573ffffffffffffffffffffffffffffffffffffffff1690602001909190803573ffffffffffffffffffffffffffffffffffffffff1690602001909190803590602001909190803590602001908201803590602001908080601f0160208091040260200160405190810160405280939291908181526020018383808284378201915050505050509190505061044b565b005b341561024557600080fd5b610290600480803573ffffffffffffffffffffffffffffffffffffffff1690602001909190803573ffffffffffffffffffffffffffffffffffffffff169060200190919050506107bb565b6040518082815260200191505060405180910390f35b34156102b157600080fd5b610348600480803573ffffffffffffffffffffffffffffffffffffffff1690602001909190803573ffffffffffffffffffffffffffffffffffffffff1690602001909190803590602001909190803590602001908201803590602001908080601f01602080910402602001604051908101604052809392919081815260200183838082843782019150505050505091905050610842565b005b341561035557600080fd5b610381600480803573ffffffffffffffffffffffffffffffffffffffff16906020019091905050610b99565b005b341561038e57600080fd5b6103ba600480803573ffffffffffffffffffffffffffffffffffffffff16906020019091905050610c12565b005b6000600260008373ffffffffffffffffffffffffffffffffffffffff1673ffffffffffffffffffffffffffffffffffffffff168152602001908152602001600020549050919050565b60008060009054906101000a900460ff16905090565b6000600154905090565b600060019054906101000a900473ffffffffffffffffffffffffffffffffffffffff1681565b60008060019054906101000a900473ffffffffffffffffffffffffffffffffffffffff1673ffffffffffffffffffffffffffffffffffffffff163373ffffffffffffffffffffffffffffffffffffffff161415156104a857600080fd5b600360008673ffffffffffffffffffffffffffffffffffffffff1673ffffffffffffffffffffffffffffffffffffffff16815260200190815260200160002060008573ffffffffffffffffffffffffffffffffffffffff1673ffffffffffffffffffffffffffffffffffffffff16815260200190815260200160002054905082811015151561053657600080fd5b6105508361054261041b565b610d6a90919063ffffffff16565b6001819055506105a883600260008773ffffffffffffffffffffffffffffffffffffffff1673ffffffffffffffffffffffffffffffffffffffff16815260200190815260200160002054610d6a90919063ffffffff16565b600260008673ffffffffffffffffffffffffffffffffffffffff1673ffffffffffffffffffffffffffffffffffffffff168152602001908152602001600020819055506105fe8382610d6a90919063ffffffff16565b600360008773ffffffffffffffffffffffffffffffffffffffff1673ffffffffffffffffffffffffffffffffffffffff16815260200190815260200160002060008673ffffffffffffffffffffffffffffffffffffffff1673ffffffffffffffffffffffffffffffffffffffff168152602001908152602001600020819055508473ffffffffffffffffffffffffffffffffffffffff167f50f61befec3467953a19febbb688506496321ea927c03e6fbf57f12edc876c5c8585600260008973ffffffffffffffffffffffffffffffffffffffff1673ffffffffffffffffffffffffffffffffffffffff1681526020019081526020016000205486604051808573ffffffffffffffffffffffffffffffffffffffff1673ffffffffffffffffffffffffffffffffffffffff16815260200184815260200183815260200180602001828103825283818151815260200191508051906020019080838360005b8381101561077757808201518184015260208101905061075c565b50505050905090810190601f1680156107a45780820380516001836020036101000a031916815260200191505b509550505050505060405180910390a25050505050565b6000600360008473ffffffffffffffffffffffffffffffffffffffff1673ffffffffffffffffffffffffffffffffffffffff16815260200190815260200160002060008373ffffffffffffffffffffffffffffffffffffffff1673ffffffffffffffffffffffffffffffffffffffff16815260200190815260200160002054905092915050565b600060019054906101000a900473ffffffffffffffffffffffffffffffffffffffff1673ffffffffffffffffffffffffffffffffffffffff163373ffffffffffffffffffffffffffffffffffffffff1614151561089e57600080fd5b6108b382600154610d8390919063ffffffff16565b60018190555061090b82600260008673ffffffffffffffffffffffffffffffffffffffff1673ffffffffffffffffffffffffffffffffffffffff16815260200190815260200160002054610d8390919063ffffffff16565b600260008573ffffffffffffffffffffffffffffffffffffffff1673ffffffffffffffffffffffffffffffffffffffff168152602001908152602001600020819055506109dd82600360008773ffffffffffffffffffffffffffffffffffffffff1673ffffffffffffffffffffffffffffffffffffffff16815260200190815260200160002060008673ffffffffffffffffffffffffffffffffffffffff1673ffffffffffffffffffffffffffffffffffffffff16815260200190815260200160002054610d8390919063ffffffff16565b600360008673ffffffffffffffffffffffffffffffffffffffff1673ffffffffffffffffffffffffffffffffffffffff16815260200190815260200160002060008573ffffffffffffffffffffffffffffffffffffffff1673ffffffffffffffffffffffffffffffffffffffff168152602001908152602001600020819055508373ffffffffffffffffffffffffffffffffffffffff167ff7f4616715682915455310b0d955b8c55b67dc8ede785aa32a1128638b6df1af8484600260008873ffffffffffffffffffffffffffffffffffffffff1673ffffffffffffffffffffffffffffffffffffffff1681526020019081526020016000205485604051808573ffffffffffffffffffffffffffffffffffffffff1673ffffffffffffffffffffffffffffffffffffffff16815260200184815260200183815260200180602001828103825283818151815260200191508051906020019080838360005b83811015610b56578082015181840152602081019050610b3b565b50505050905090810190601f168015610b835780820380516001836020036101000a031916815260200191505b509550505050505060405180910390a250505050565b6000809054906101000a900460ff16151515610bb457600080fd5b80600060016101000a81548173ffffffffffffffffffffffffffffffffffffffff021916908373ffffffffffffffffffffffffffffffffffffffff16021790555060016000806101000a81548160ff02191690831515021790555050565b600060019054906101000a900473ffffffffffffffffffffffffffffffffffffffff1673ffffffffffffffffffffffffffffffffffffffff163373ffffffffffffffffffffffffffffffffffffffff16141515610c6e57600080fd5b600073ffffffffffffffffffffffffffffffffffffffff168173ffffffffffffffffffffffffffffffffffffffff1614151515610caa57600080fd5b8073ffffffffffffffffffffffffffffffffffffffff16600060019054906101000a900473ffffffffffffffffffffffffffffffffffffffff1673ffffffffffffffffffffffffffffffffffffffff167f8be0079c531659141344cd1fd0a4f28419497f9722a3daafe3b4186f6b6457e060405160405180910390a380600060016101000a81548173ffffffffffffffffffffffffffffffffffffffff021916908373ffffffffffffffffffffffffffffffffffffffff16021790555050565b6000828211151515610d7857fe5b818303905092915050565b6000808284019050838110151515610d9757fe5b80915050929150505600a165627a7a72305820d3387ec296d96aec40f4e37e3aaa6e468354b62331ed9b7a526f5bed306ef7350029",
  "source": "pragma solidity ^0.4.21;\n\nimport \"zos-lib/contracts/migrations/Initializable.sol\";\nimport \"zeppelin-solidity/contracts/math/SafeMath.sol\";\nimport \"zeppelin-solidity/contracts/ownership/Ownable.sol\";\n\n\n/**\n * @title Vouching\n * @dev This contract keeps track of all submitted vouches for stdlib releases\n */\ncontract Vouching is Initializable, Ownable {\n  using SafeMath for uint256;\n\n  /**\n   * @dev Event signaling a new vouch\n   * @param voucher representing the address of the voucher\n   * @param release representing the stdlib release vouched for\n   * @param amount representing the vouched amount\n   * @param total representing the new total amount vouched by the voucher\n   * @param data representing additional information for complex vouching models\n   */\n  event Vouched(address indexed voucher, address release, uint256 amount, uint256 total, bytes data);\n\n  /**\n   * @dev Event signaling an unvouching\n   * @param voucher representing the address of the voucher\n   * @param release representing the stdlib release unvouched for\n   * @param amount representing the unvouched amount\n   * @param total representing the new total amount vouched by the voucher\n   * @param data representing additional information for complex vouching models\n   */\n  event Unvouched(address indexed voucher, address release, uint256 amount, uint256 total, bytes data);\n\n  // Total amount of vouched tokens\n  uint256 private _totalVouched;\n\n  // Mapping from a release address to its vouched amount\n  mapping(address => uint256) private _releaseVouches;\n\n  // Mapping of voucher addresses to their vouched amount for a given release address\n  mapping(address => mapping (address => uint256)) private _vouches;\n\n  /**\n   * @dev Initialization function, sets the owner\n   * @param _owner representing the address of the owner\n   */\n  function initialize(address _owner) public isInitializer {\n    owner = _owner;\n  }\n\n  /**\n   * @dev Retrieves the total vouched amount\n   * @return the total vouched amount\n   */\n  function totalVouched() public view returns (uint256) {\n    return _totalVouched;\n  }\n\n  /**\n   * @dev Retrieves the vouched amount for a given kernel\n   * @param release representing the kernel release\n   * @return the total vouched amount for a given kernel\n   */\n  function totalVouchedFor(address release) public view returns (uint256) {\n    return _releaseVouches[release];\n  }\n\n  /**\n   * @dev Retrieves the vouched amount by a voucher for a given release\n   * @param voucher representing the voucher address\n   * @param release representing the stdlib release\n   * @return the total vouched amount by the voucher for the given release\n   */\n  function vouchedFor(address voucher, address release) public view returns (uint256) {\n    return _vouches[voucher][release];\n  }\n\n  /**\n   * @dev Vouches a given amount for a given release and emits the corresponding event\n   * @param voucher representing the voucher address\n   * @param release representing the release being vouched for\n   * @param amount representing the amount being vouched\n   * @param data representing additional information for complex vouching models\n   */\n  function vouch(address voucher, address release, uint256 amount, bytes data) public onlyOwner {\n    _totalVouched = _totalVouched.add(amount);\n    _releaseVouches[release] = _releaseVouches[release].add(amount);\n    _vouches[voucher][release] = _vouches[voucher][release].add(amount);\n\n    emit Vouched(voucher, release, amount, _releaseVouches[release], data);\n  }\n\n  /**\n   * @dev Unvouches a given amount for a given release and emits the corresponding event\n   * @param voucher representing the voucher address\n   * @param release representing the release being unvouched for\n   * @param amount representing the amount being unvouched\n   * @param data representing additional information for complex vouching models\n   */\n  function unvouch(address voucher, address release, uint256 amount, bytes data) public onlyOwner {\n    uint256 currentVouch = _vouches[voucher][release];\n    require(currentVouch >= amount);\n\n    _totalVouched = totalVouched().sub(amount);\n    _releaseVouches[release] = _releaseVouches[release].sub(amount);\n    _vouches[voucher][release] = currentVouch.sub(amount);\n\n    emit Unvouched(voucher, release, amount, _releaseVouches[release], data);\n  }\n}\n",
  "sourcePath": "/Users/facu/Documents/Laburo/Zeppelin/ZeppelinOS/kernel/contracts/Vouching.sol",
  "compiler": {
    "name": "solc",
    "version": "0.4.21+commit.dfe3193c.Emscripten.clang"
  },
  "schemaVersion": "2.0.0",
  "updatedAt": "2018-04-20T19:08:19.337Z"
}